:100000000C94D1050C94F9050C94F9050C94F905A0
:100010000C94F9050C94F9050C94F9050C94F90568
:100020000C94F9050C94F9050C94F9050C94F90558
:100030000C94F9050C94F9050C94F9050C94F90548
:100040000C94A1170C94F9050C946F170C94491794
:100050000C94F9050C94F9050C94F9050C94F90528
:100060000C94EB170C94F90500407A10F35A00A099
:10007000724E18090010A5D4E80000E87648170071
:1000800000E40B54020000CA9A3B000000E1F505B1
:10009000000080969800000040420F000000A086FB
:1000A00001000000102700000000E803000000002D
:1000B0006400000000000A000000000001000000D1
:1000C00000002C76D888DC674F0823DFC1DFAE59EB
:1000D000E1B1B796E5E3E453C63AE651997696E87E
:1000E000E6C28426EB898C9B62ED407C6FFCEFBC02
:1000F0009C9F40F2BAA56FA5F490055A2AF75C932D
:100100006B6CF9676DC11BFCE0E40D47FEF520E662
:10011000B500D0ED902E0300943577050080841E45
:10012000080000204E0A000000C80C333333330FA0
:10013000986E12831141EF8D2114893BE65516CF3D
:10014000FEE6DB18D1844B381BF77C1D901DA4BB49
:10015000E424203284725E228100C9F124ECA1E5FE
:100160003D2700000000003E5B4F5B3E3E6B4F6B47
:100170003E1C3E7C3E1C183C7E3C181C577D571C88
:100180001C5E7F5E1C00183C1800FFE7C3E7FF0001
:1001900018241800FFE7DBE7FF30483A060E26294F
:1001A000792926407F050507407F05253F5A3CE712
:1001B0003C5A7F3E1C1C08081C1C3E7F14227F22D8
:1001C000145F5F005F5F06097F017F006689956AA3
:1001D000606060606094A2FFA29408047E0408102E
:1001E000207E201008082A1C08081C2A08081E1057
:1001F0001010100C1E0C1E0C30383E3830060E3E0F
:100200000E06000000000000005F0000000700076D
:1002100000147F147F14242A7F2A12231308646297
:1002200036495620500008070300001C22410000F8
:1002300041221C002A1C7F1C2A08083E0808008056
:1002400070300008080808080000606000201008EE
:1002500004023E5149453E00427F400072494949EF
:10026000462141494D331814127F10274545453921
:100270003C4A494931412111090736494949364625
:100280004949291E00001400000040340000000805
:1002900014224114141414140041221408020159A8
:1002A00009063E415D594E7C1211127C7F49494935
:1002B000363E414141227F4141413E7F49494941CA
:1002C0007F090909013E414151737F0808087F00F9
:1002D000417F41002040413F017F081422417F407F
:1002E0004040407F021C027F7F0408107F3E414156
:1002F000413E7F090909063E4151215E7F091929C6
:1003000046264949493203017F01033F4040403FAF
:100310001F2040201F3F4038403F631408146303F0
:10032000047804036159494D43007F41414102046F
:10033000081020004141417F040201020440404076
:100340004040000307080020545478407F2844446C
:10035000383844444428384444287F385454541886
:1003600000087E090218A4A49C787F080404780081
:10037000447D40002040403D007F10284400004163
:100380007F40007C047804787C0804047838444476
:100390004438FC1824241818242418FC7C0804046D
:1003A00008485454542404043F44243C4040207CD6
:1003B0001C2040201C3C4030403C44281028444C29
:1003C0009090907C4464544C4400083641000000F6
:1003D000770000004136080002010204023C262397
:1003E000263C1EA1A161123A4040207A385454554F
:1003F0005921555579412254547842215554784019
:1004000020545579400C1E527212395555555939A0
:100410005454545939555454580000457C410002F5
:10042000457D420001457C407D1211127DF028255A
:1004300028F07C545545002054547C547C0A097F94
:100440004932494949323A4444443A324A484830A8
:100450003A4141217A3A42402078009DA0A07D3D5A
:100460004242423D3D4040403D3C24FF2424487EE2
:100470004943662B2FFC2F2BFF0929F620C0887ECD
:10048000090320545479410000447D413048484AD2
:1004900032384040227A007A0A0A727D0D19317D85
:1004A0002629292F28262929292630484D40203859
:1004B0000808080808080808382F10C8ACBA2F1018
:1004C0002834FA00007B000008142A142222142A7F
:1004D00014085500550055AA55AA55AAFF55FF55B1
:1004E000FF000000FF00101010FF00141414FF00A4
:1004F0001010FF00FF1010F010F0141414FC001482
:1005000014F700FF0000FF00FF1414F404FC14149F
:1005100017101F10101F101F1414141F001010109C
:10052000F0000000001F101010101F10101010F02D
:1005300010000000FF101010101010101010FF100D
:10054000000000FF140000FF00FF00001F10170054
:1005500000FC04F414141710171414F404F400002D
:10056000FF00F714141414141414F700F7141414DF
:10057000171410101F101F141414F4141010F0107E
:10058000F000001F101F0000001F14000000FC14EA
:100590000000F010F01010FF10FF141414FF1410DE
:1005A00010101F00000000F010FFFFFFFFFFF0F031
:1005B000F0F0F0FFFFFF0000000000FFFF0F0F0F43
:1005C0000F0F3844443844FC4A4A4A347E0202063B
:1005D00006027E027E0263554941633844443C046E
:1005E000407E201E2006027E020299A5E7A5991CE6
:1005F0002A492A1C4C7201724C304A4D4D30304809
:10060000784830BC625A463D3E494949007E010166
:10061000017E2A2A2A2A2A44445F444440514A44FB
:100620004040444A51400000FF0103E080FF0000C9
:1006300008086B6B083612362436060F090F0600C1
:100640000018180000001010003040FF0101001FCA
:1006500001011E00191D1712003C3C3C3C0000002B
:100660000000000103070F1F3F7F0080C0E0F0F88B
:10067000FCFE000000080002010000030407000067
:10068000000000000000DB40A4A62EAF2000A1C89F
:10069000D300408DAED580A80000600000000000AF
:1006A000000000000000000000E00000000000006A
:1006B0000000000000000001E00000000000000059
:1006C00000000000000001F0000000000000000039
:1006D000000000000003F000000000000000000027
:1006E0000000000007F00000000000000000000013
:1006F00000000007F80000000000000000000000FB
:1007000000000FF800000003C0007E000001E000C0
:100710007F0FF800000003C000FE000001E000FFB2
:10072000EFF800000003C000FE000001E000FFFF42
:10073000F800000003C000F00000000F007FFE7F03
:10074000C0000003C000F00000000F003FFE7FF873
:100750003FF1FBCFFCFEF3BC3DEFE01FFE7FFF7FD0
:10076000FBFFDFFEFEFFBC3DEFE01FC6FFFF7FFB90
:10077000FFDFFEFEFFBC3DEFE00FE3C7FE787BC36B
:10078000DE1EF0FFBC3DEF0007FF87FC787BC3DE79
:100790001EF0F83C3DEF0001FFFFF0007BC3C01EE0
:1007A000F0F03C3DEF0001F37FE03FFBC3CFFEF0F4
:1007B000F03C3DEF0003E33F807FFBC3DFFEF0F042
:1007C0003C3DEF0007E73C00787BC3DE1EF0F03CC9
:1007D0003DEF0007FFBE00787BC3DE1EF0F03C3D1E
:1007E000EF0007FFFE00787BC3DE1EF0F03C3DEF1C
:1007F000000FFFFE007FFBFFDFFEF0F03FFDEFE0AC
:100800000FFFFF007FFBFFDFFEF0F03FFDEFE00F8B
:10081000F9FF003E79F9CF9EF0F01F3DE7E01FF1B0
:10082000FF0000000000000000000000001F80FF2B
:10083000007FFFFFFFFFFFFFFFFFFFE01C007F00C7
:100840007FFFFFFFFEB46D888D18E000001F007F62
:10085000FFFFFFFE95AD7DB577E000000F007FFF45
:10086000FFFFFEA5AD9D8D19E0000006007FFFFF94
:10087000FFFEB5ADEDB57EE0000000000001800098
:1008800000000000000000000380000000000000E5
:1008900000000007C000000000000000000007C0CA
:1008A0000000000000000000000FC0000000000079
:1008B000000000001FE00000000000000000001F1A
:1008C000E00000000000000000003FE00000000029
:1008D00000000000003FF0000000000000000000E9
:1008E0007FF0000000000000001FF87FF000000013
:1008F000000000003FFE7FF0000000000000003F0D
:10090000FF7FF0000000000000001FFFFBE0000080
:1009100000000000000FFFF9FFC000000000000011
:100920000FFFF9FFF800000000000007FFF1FFFFD4
:1009300000000000000003FC73FFFF8000000000C7
:100940000001FE3FFFFF80000000000000FF1E0FBF
:10095000FF000000000000007FFE1FFC0000000000
:100960000000003FFFFFF8000000000000000FDF64
:10097000FFE0000000000000001F19FFC0000000A1
:10098000000000003F3CFF00000000000000007E6F
:100990007CF800000000000000007FFE7C000000EA
:1009A0000000000000FFFFFC00000000000000004D
:1009B000FFFFFE0000000000000000FFFFFE00003F
:1009C000000000000001FFEFFE000000000000003A
:1009D00001FFCFFE0000000000000003FF07FE0043
:1009E00000000000000003FC07FE00000000000003
:1009F0000003F003FE00000000000000018000FE84
:100A0000000000000000000000007E000000000068
:100A100000000000003E0000000000000000000098
:100A20000C000000000000078000FC000003C00074
:100A30000000078001FC000003C0000000078001E7
:100A4000FC000003C0000000078001E00000001E61
:100A5000000000078001E00000001E007FE3F79F18
:100A6000F9FDE7787BDFC0FFF7FFBFFDFDFF787B77
:100A7000DFC0FFF7FFBFFDFDFF787BDFC0F0F7872A
:100A8000BC3DE1FF787BDE00F0F787BC3DE1F0780C
:100A90007BDE0000F787803DE1E0787BDE007FF7BA
:100AA000879FFDE1E0787BDE00FFF787BFFDE1E097
:100AB000787BDE00F0F787BC3DE1E0787BDE00F07C
:100AC000F787BC3DE1E0787BDE00F0F787BC3DE1D5
:100AD000E0787BDE00FFF7FFBFFDE1E07FFBDFC0DA
:100AE000FFF7FFBFFDE1E07FFBDFC07CF3F39F3D3D
:100AF000E1E03E7BCFC000000000000000000000ED
:100B000000FFFFFFFFFFFFFFFFFFFFC0FFFFFFFF33
:100B1000FD68DB111A31C0FFFFFFFFFD2B5AFB6A96
:100B2000EFC0FFFFFFFFFD4B5B3B1A33C0FFFFFF32
:100B3000FFFD6B5BDB6AFDC053534431333036201D
:100B4000616C6C6F636174696F6E206661696C655E
:100B50006400000000002300260029002200FF217D
:100B60000000000000250028002B000000000024E9
:100B70000027002A000404040404040404020202FE
:100B800002020203030303030301020408102040CE
:100B900080010204081020010204081020004F19EF
:100BA000F81E11241FBECFEFD8E0DEBFCDBF23E07B
:100BB000A4E9B1E001C01D92AB34B207E1F711E046
:100BC000A0E0B1E0ECE0FCE402C005900D92A43995
:100BD000B107D9F715E0C0EDD5E004C02197FE01BB
:100BE0000E94F523CF3CD107C9F70E94E0190C946D
:100BF000F9250C94000090E0FC01E757F44F249194
:100C00008B58944FFC018491882399F090E0880FD1
:100C1000991FFC01E559F44FA591B491FC01EF59DE
:100C2000F44F859194918FB7F894EC91E22BEC936B
:100C30008FBF08950895089508950895AF92BF92C3
:100C4000CF92DF92EF92FF920F931F93CF93DF9398
:100C50006C017B018B01040F151FEB015E01AE18C7
:100C6000BF08C017D10759F06991D601ED91FC91E9
:100C70000190F081E02DC6010995892B79F7C50116
:100C8000DF91CF911F910F91FF90EF90DF90CF9068
:100C9000BF90AF900895FC01538D448D252F30E017
:100CA000842F90E0821B930B541710F0CF96089579
:100CB00001970895FC01918D828D981761F0A28DA6
:100CC000AE0FBF2FB11D5D968C91928D9F5F9F736C
:100CD000928F90E008958FEF9FEF0895FC01918D22
:100CE000828D981731F0828DE80FF11D858D90E08F
:100CF00008958FEF9FEF0895FC01918D228D892F2C
:100D000090E0805C9F4F821B91098F739927089513
:100D100088E592E00E947C0621E0892B09F420E01E
:100D2000822F089580E090E0892B29F00E948806A8
:100D300081110C9400000895FC01A48DA80FB92F17
:100D4000B11DA35ABF4F2C91848D90E001968F73F3
:100D50009927848FA689B7892C93A089B1898C9112
:100D6000837080648C93938D848D981306C0028861
:100D7000F389E02D80818F7D80830895EF92FF922B
:100D80000F931F93CF93DF93EC0181E0888F9B8DAE
:100D90008C8D98131AC0E889F989808185FF15C068
:100DA0009FB7F894EE89FF896083E889F98980818B
:100DB0008370806480839FBF81E090E0DF91CF915A
:100DC0001F910F91FF90EF900895F62E0B8D10E07C
:100DD0000F5F1F4F0F731127E02E8C8D8E110CC0EB
:100DE0000FB607FCFACFE889F989808185FFF5CF36
:100DF000CE010E949C06F1CFEB8DEC0FFD2FF11D73
:100E0000E35AFF4FF0829FB7F8940B8FEA89FB8972
:100E100080818062CFCFCF93DF93EC01888D8823D0
:100E2000B9F0AA89BB89E889F9898C9185FD03C04D
:100E3000808186FD0DC00FB607FCF7CF8C9185FF32
:100E4000F2CF808185FFEDCFCE010E949C06E9CFD5
:100E5000DF91CF91089590E0FC01EE58F94F249175
:100E6000FC01E757F44F3491FC01EB58F44FE49147
:100E7000EE23C9F0222339F0233001F1A8F4213008
:100E800019F1223029F1F0E0EE0FFF1FEF59F44F76
:100E9000A591B4918FB7F894EC91611126C030956B
:100EA0003E233C938FBF08952730A9F02830C9F026
:100EB000243049F7809180008F7D03C080918000AD
:100EC0008F7780938000DFCF84B58F7784BDDBCFB1
:100ED00084B58F7DFBCF8091B0008F778093B00079
:100EE000D2CF8091B0008F7DF9CF3E2BDACF3FB7C4
:100EF000F8948091490290914A02A0914B02B091DE
:100F00004C0226B5A89B05C02F3F19F00196A11DE4
:100F1000B11D3FBFBA2FA92F982F8827BC01CD0143
:100F2000620F711D811D911D42E0660F771F881FA2
:100F3000991F4A95D1F708958F929F92AF92BF92D1
:100F4000CF92DF92EF92FF924B015C010E947707F4
:100F50006B017C010E9477076C197D098E099F093E
:100F6000683E734081059105A8F321E0821A91083B
:100F7000A108B10888EEC80E83E0D81EE11CF11C60
:100F800081149104A104B10429F7FF90EF90DF9040
:100F9000CF90BF90AF909F908F900895EF92FF9267
:100FA0000F931F93CF93DF93EC01EC80FD806E15C0
:100FB0007F050CF070C057FF04C0240F351F50E0B0
:100FC00040E08E819F81FA01E20FF31F8E179F0789
:100FD0001CF49C01241B350B121613060CF05BC08D
:100FE000922F842F8695869586958E9DD0018F9D14
:100FF000B00D11246A0F7B1FAF8DB8A1A60FB71FCC
:10100000477049F188E0841B482F682F70E0FB018E
:10101000E659F94FE491281708F063C0621B710983
:101020002FEF30E002C0359527956A95E2F7E2236D
:101030000130110539F0B0F10230110561F58C91E4
:10104000E82702C08C91E82BEC93941720F12C81B7
:101050003D81A20FB31FE92FE41BE83078F0023086
:10106000110521F58E2F9C9190959C932C813D81AB
:10107000A20FB31F88508830B0F7E770EE2359F005
:10108000F0E0EE59F94FE49101301105F9F010F15B
:101090000230110519F1DF91CF911F910F91FF904F
:1010A000EF900895E0958C91E823CECF81E0011573
:1010B000110509F480E081959E2F8C932C813D8150
:1010C000A20FB31F98509830C0F7D7CF8C91E82B60
:1010D000EC93E1CFE0958C91E823FACF8C91E8274F
:1010E000F7CF0130110509F4ADCFE0F20230110560
:1010F00009F4A5CFAE0DBF1DAECF0F931F93CF93B5
:10110000DF9377FF04C0260F371F70E060E0DC013B
:101110001496CD91DC91FB01E20FF31FCE17DF0790
:101120001CF49E01261B370B121613064CF5FA0110
:1011300057FD3796A3E0F595E795AA95E1F7EC9F63
:10114000D001ED9FB00DFC9FB00D11246A0F7B1FE5
:10115000DC015F96ED91FC91E60FF71F4770552774
:1011600081E090E001C0880F4A95EAF7482F0130EE
:10117000110559F0A8F02E0F3F1F02301105E1F0C4
:10118000DF91CF911F910F9108952E0F3F1FE2170E
:10119000F307B1F38191DF011197842B8C93F7CF83
:1011A00080952E0F3F1FE217F30751F39191DF0156
:1011B000119798239C93F7CFE217F30709F38191D6
:1011C000DF01119784278C93F7CF0F931F93FA01B8
:1011D000DC0156964C9156974230E9F04330A1F12C
:1011E000413061F514964D915C91DA01AE1BBF0B55
:1011F000FD01E21BF30B77FD0BC0DC0116964D9150
:101200005C916417750724F4AB01BF010E947D084F
:101210001F910F91089514964D915C91DA01A61BD0
:10122000B70BBD0161507109DC0116964D915C91BF
:10123000DA01AE1BBF0BFD01E21BF30B77FDE8CF1C
:10124000AF010E94CE07E4CF16964D915C91DA0172
:10125000A61BB70BBD0161507109CDCF0F931F9332
:10126000FA01DC0156964C9156974230A9F0433072
:1012700091F1413019F514964D915C91DA01AE1B54
:10128000BF0BFD013197F7FD04C0AB01BF010E9408
:10129000CE071F910F91089514964D915C91DA013C
:1012A000A61BB70BBD01DC0116964D915C91DA01CE
:1012B000AE1BBF0BFD013197621B730BF7FDE9CF2E
:1012C000DC0116964D915C91E417F50714F7AF0118
:1012D0000E947D08DECF16964D915C91DA01A61B27
:1012E000B70BBD01621B730BCECFFC0177FD64C051
:1012F00080859185681779070CF05EC057FD5CC04A
:1013000082859385481759070CF056C0868982302C
:10131000B1F0833029F1813041F484819581841BBF
:10132000950BAB01BC01615071092130310509F108
:1013300008F443C02230310509F463C00895848164
:101340009581DC01A61BB70BBD0161507109868137
:101350009781DC01A41BB50BAD0141505109E5CFCC
:1013600086819781861B970BBA01AC0141505109C8
:10137000DCCFCA0157FD0796A3E095958795AA95FE
:10138000E1F7A481B5818A9F90018B9F300D9A9FD0
:10139000300D1124620F731F078CF0A1E02DE60FB2
:1013A000F71F4770552721E030E001C0220F4A9512
:1013B000EAF78081822B80830895CA0157FD079642
:1013C00033E0959587953A95E1F7A481B5818A9F99
:1013D00090018B9F300D9A9F300D1124620F731F67
:1013E000078CF0A1E02DE60FF71F4770552781E02D
:1013F00090E001C0880F4A95EAF780959081892393
:10140000DACFCA0157FD079623E0959587952A956F
:10141000E1F7A481B5818A9F90018B9F300D9A9F3F
:10142000300D1124620F731F078CF0A1E02DE60F21
:10143000F71F4770552721E030E001C0220F4A9581
:10144000EAF780818227B7CF08958EBD00000DB4E2
:1014500007FEFDCF8EB508958CBD9DBD08950895FE
:10146000FC016370668B84819581268137816130B0
:1014700039F0633029F09187808733872287089578
:10148000318720879387828708952F923F924F92CA
:101490005F926F927F928F929F92AF92BF92CF9204
:1014A000DF92EF92FF920F931F93CF93DF93CDB70D
:1014B000DEB76A970FB6F894DEBF0FBECDBF9A8F26
:1014C000898F7A8369834A01D22E18870F83370167
:1014D000BC2CDC0159962D913C915A972115310570
:1014E00009F015C118968D919C9119976817790785
:1014F0000CF0D7C11A968D919C91481759070CF0A2
:10150000D0C14C2C512CB6E0CB9E600D711D112426
:101510007C876B87161617060CF0C3C1EA2DF0E026
:10152000FA87E98793E0EE0FFF1F9A95E1F7F88BB2
:10153000EF87CF01840F951F181619060CF0B1C163
:10154000A98DBA8D58968C91811104C0BFEABD1542
:1015500008F4D394A98DBA8DED91FC911197028472
:10156000F385E02DCD010995B5E0DB9EC001112486
:10157000E981FA81FC83EB83312C212C9C012E59CB
:101580003E4F388F2F8B4A2D50E05E8B4D8BEF896D
:10159000F88DE20DF31D44919E828D82D12CC12CD9
:1015A00069817A81620D731D7A8B698B842F90E03B
:1015B0009C8B8B8BE98DFA8DA081B18140FF82C01D
:1015C000F1E0BF126FC0AF126DC01C96ED91FC919F
:1015D0002F813885A4014C0D5D1D69897A89898D1B
:1015E0009A8D0995EB89FC89F595E7954E2F5FEF6C
:1015F000C51AD50A6D817E818D899E89680F791FF4
:101600007E836D8398E0C916D10481F6AFEF2A1A64
:101610003A0AEB81FC81E40DF51DFC83EB83F5E0D8
:101620002F16310409F0B3CF2F81388526153705E1
:10163000B9F0A98DBA8DED91FC91B1E0BB1257C004
:10164000AB1255C069817A816B5F7F4F0088F18949
:10165000E02D830128E030E0A401898D9A8D099561
:10166000A98DBA8DED91FC9111970688F789E02D2F
:10167000CD016A960FB6F894DEBF0FBECDBFDF91E5
:10168000CF911F910F91FF90EF90DF90CF90BF907F
:10169000AF909F908F907F906F905F904F903F9012
:1016A0002F9009941E96ED91FC91EF80F8840985A6
:1016B0001A8592014D815E816B817C81898D9A8D25
:1016C000099590CF2F8138852615370509F48ACFE3
:1016D00031E0B31207C0A31205C01C96ED91FC9136
:1016E000930178CF1E96ED91FC917301E0CF6B854D
:1016F0007C85641975090684F785E02D73010F85D3
:1017000018899201A401898D9A8D0995A9CFF901B3
:1017100034969491329745915491D91AB7E0DB9E53
:10172000400D511D1124F901259134913C8B2B8BD7
:10173000FA0125903490FA013296749031963491E2
:10174000398B329664903196449041E04C1518F0F4
:101750004A1508F07FC0662D062C000C770B7C83A1
:101760006B83842D042C000C990B9E838D83A98D93
:10177000BA8DED91FC9111970284F385E02DCD0196
:101780000995512CD12CC12CEA2DF0E0FA87E9877C
:101790002B2D30E03C872B87A401440D511D47FCC5
:1017A0005A95588F4F8B69817A81660D711D67FC40
:1017B0007A957E876D877989C71608F051CF2C2DD1
:1017C00030E04D815E81420F531FA985BA854A9F43
:1017D000C0014B9F900D5A9F900D1124FC01E80D04
:1017E000F91DF88BEF87852D612C4F89588D420F9D
:1017F000531F5E8B4D8B671408F050C044244394F4
:10180000480E877041F4C1010196EB89FC89E20D15
:10181000F31DD4901C01D7FE19C0A98DBA8DED918E
:10182000FC91662D70E0B1E0BB1219C0AB1217C07D
:101830002D853E85620F731F0484F585E02D2F8171
:1018400038854D895E89898D9A8D0995DD0C639463
:10185000842DD1CF1E821D821C821B8288CF4B819A
:101860005C81640F751FAB85BC856A9FC0016B9F4F
:10187000900D7A9F900D112469817A81680F791FEC
:101880000684F785E02DEF80F88409851A859D018F
:101890004F855889898D9A8D0995D8CF570CC39457
:1018A0008ACF6A960FB6F894DEBF0FBECDBFDF9128
:1018B000CF911F910F91FF90EF90DF90CF90BF904D
:1018C000AF909F908F907F906F905F904F903F90E0
:1018D0002F9008958F929F92AF92CF92EF92FF92A6
:1018E0000F931F93CF93DF93EC01262F898D9A8D51
:1018F000009709F051C06A30D1F41D861C868D898D
:1019000048E0849F900111248E859F85820F931F4C
:101910009F878E8781E090E0DF91CF911F910F919B
:10192000FF90EF90CF90AF909F908F9008956D3083
:1019300089F3CC88AD888F898823C1F08C859D85FB
:1019400036E0C39E800D911D1124488559854817A6
:10195000590764F44E855F851D861C8638E0A39E7A
:10196000C0011124840F951F9F878E87EA88FB880A
:10197000088919894E855F856C857D85CE010E9419
:10198000450A2C898C859D8546E0249F800D911DFC
:1019900011249D878C87BECF6A3069F41D861C8612
:1019A000FC013896E4912D898E859F85E29F800DFC
:1019B000911D1124ADCF6D3009F4ACCFFC013496EC
:1019C0003491631708F4A6CF3296E491E61708F431
:1019D000A1CFFC01329685909490462F431B342F63
:1019E00047E0349F800C911C1124F401329634910D
:1019F0003196E4913323A9F1EE2399F1CC88F401D7
:101A00003596E491AD884F89442301F10E2E000CE8
:101A1000FF0BE30FF11DCE9EA001CF9E500D1124B0
:101A20006C857D85460F571F688579856417750716
:101A30006CF44E855F851D861C86FC013896E4910A
:101A4000AE9E400D511D11245F874E87EA88FB88AA
:101A5000088919894E855F856C857D85CE010E9438
:101A6000450AF4013496E4912C898C859D85E29F8A
:101A7000800D911D11248DCF6F927F928F929F9236
:101A8000AF92BF92CF92DF92EF92FF920F931F938C
:101A9000CF93DF93EC016B015A0139014801E881D2
:101AA000F9810284F385E02D0995E881F9810288A6
:101AB000F389E02D87019301A501B601CE010995B7
:101AC000A501480D591D41505109E881F98102884D
:101AD000F389E02D9301B601CE010995E881F981E2
:101AE0000088F189E02D9401A501B601CE01099588
:101AF000C60CD71CB60161507109E881F9810088D4
:101B0000F189E02D9401A501CE010995E881F981C3
:101B10000688F789E02DCE01DF91CF911F910F91BB
:101B2000FF90EF90DF90CF90BF90AF909F908F90FD
:101B30007F906F9009946F927F928F929F92AF9255
:101B4000BF92CF92DF92EF92FF920F931F93CF93AA
:101B5000DF935C01EB016A01490138018701DC0177
:101B6000ED91FC916217730719F5641675062CF058
:101B7000962D872D3A01C92ED82E960126193709A0
:101B80002F5F3F4F048CF58DE02DA301BE01C501F1
:101B90000995DF91CF911F910F91FF90EF90DF900A
:101BA000CF90BF90AF909F908F907F906F9008954F
:101BB0004615570591F42617370724F0892D4B0158
:101BC000C22FD82F9E01281939092F5F3F4F068C4D
:101BD000F78DE02DA601B401DACF0284F385E02D64
:101BE0000995D501ED91FC910488F589E02D8301DB
:101BF0009401A601BE01C5010995D501ED91FC91A5
:101C00000688F789E02DC501DF91CF911F910F91D3
:101C1000FF90EF90DF90CF90BF90AF909F908F900C
:101C20007F906F900994EF92FF920F931F93DC01C6
:101C30001A960D911C911B9718962D913C9119970E
:101C4000ED91FC9100A0F1A1E02D7B0150E040E07E
:101C500070E060E009951F910F91FF90EF9008955B
:101C60004F925F926F927F928F929F92AF92BF92AC
:101C7000CF92DF92EF92FF920F931F93CF93DF9358
:101C80006C012B015A0139014801DC01ED91FC91F5
:101C90000284F385E02D0995E201640C751CD601E0
:101CA000ED91FC91C615D7055CF40088F189E02D13
:101CB00087019401A501BE01C60109952196EFCFC8
:101CC0000688F789E02DC601DF91CF911F910F9112
:101CD000FF90EF90DF90CF90BF90AF909F908F904C
:101CE0007F906F905F904F9009948F929F92AF92E8
:101CF000BF92CF92DF92EF92FF920F931F93CF93F9
:101D0000DF93EC015B014A016901E881F9810284FA
:101D1000F385E02D099595012C0D3D1D21503109CC
:101D2000E881F9810488F589E02D78018401A40116
:101D3000B501CE010995E881F9810688F789E02D82
:101D4000CE01DF91CF911F910F91FF90EF90DF9027
:101D5000CF90BF90AF909F908F9009948F929F9259
:101D6000AF92BF92CF92DF92EF92FF920F931F93A9
:101D7000CF93DF93EC015B014A0169017801E881AF
:101D8000F9810284F385E02D0995C80CD91C8601E0
:101D900001501109E881F9810488F589E02D950148
:101DA000A401B501CE010995E881F9810688F7897A
:101DB000E02DCE01DF91CF911F910F91FF90EF9019
:101DC000DF90CF90BF90AF909F908F900994EF924B
:101DD000FF920F931F93DC01ED91FC9100A0F1A104
:101DE000E02D09951F910F91FF90EF9008950F93AB
:101DF0001F93DC01ED91FC91068CF78DE02D099588
:101E00001F910F9108950F931F93DC01ED91FC91A9
:101E1000048CF58DE02D09951F910F910895DC013B
:101E2000ED91FC910084F185E02D09943F924F9251
:101E30005F926F927F928F929F92AF92BF92CF925A
:101E4000DF92EF92FF920F931F93CF93DF935C018A
:101E50007B014A016901390187E0680E711C93E03A
:101E6000759467949A95E1F72B01400E511E10E08E
:101E700000E0312CD0E0C0E0CE0187709927330C10
:101E8000892B59F4FE0183E0F595E7958A95E1F7F2
:101E9000E00FF11FE80DF91D349037FE0AC021E074
:101EA00030E0A701B5016C0F7D1F87E093E00E9431
:101EB0000F0F2196CC16DD06F9F68FEFE81AF80A17
:101EC000060D171DE414F504A9F6DF91CF911F91BB
:101ED0000F91FF90EF90DF90CF90BF90AF909F90C9
:101EE0008F907F906F905F904F903F9008952F92CA
:101EF0003F924F925F926F927F928F929F92AF929A
:101F0000BF92CF92DF92EF92FF920F931F93CF93E6
:101F1000DF9300D000D000D0CDB7DEB73C016A011E
:101F20003E832D83FC82EB825801A41AB50AB7FECA
:101F300003C0B194A194B1088D809E80861A970A3F
:101F400097FE03C09194819491088A149B045CF0DD
:101F5000902F812F0D811E819D838E839C2D8D2D31
:101F60006B01692F782F0C151D055CF09D818E810A
:101F70007E836D83692F782F902F812F8601C92E44
:101F8000D82E1601201A310A2B012D813E81421ACA
:101F9000530A57FE03C0519441945108710137FE12
:101FA00003C03FEFE31AF30AF594E7948D819E8115
:101FB000861797075CF5A1E0B0E0BA83A983C01645
:101FC000D1064CF1D301ED91FC910484F585E02D0F
:101FD0002B813C81A8016D817E818A149B041CF0B9
:101FE0004D815E81B801C3010995E418F508F7FE3B
:101FF0000AC02D813E8189819A81280F391F3E8335
:102000002D83E20CF31C0F5F1F4FD9CF2FEF3FEF53
:102010003A832983D4CF26960FB6F894DEBF0FBE3D
:10202000CDBFDF91CF911F910F91FF90EF90DF9087
:10203000CF90BF90AF909F908F907F906F905F9068
:102040004F903F902F9008952091FA01260F33274B
:10205000331F21323105ECF420911E02FC0190E087
:1020600080E0243069F082E00895A091FA01219186
:10207000AC0146525E4FA40FB52FB11D2C930196B3
:10208000861798F38091FA01680F6093FA0180E057
:10209000089581E0089510921E0281E0809320024D
:1020A00010921F0261E082E10E942B0761E083E150
:1020B0000E942B07E9EBF0E080818E7F8083808196
:1020C0008D7F808388E48093B80085E48093BC0092
:1020D0000895CF93DF9391E09093D9018823B9F0CD
:1020E000C091B800D091BA008091BC008A7B8093E7
:1020F000BC0060E082E10E942B0760E083E10E9467
:102100002B070E944B10D093BA00C093B800DF9108
:10211000CF910895E091530280915202E81730F474
:10212000F0E0EC54FE4F808190E008958FEF9FEF38
:10213000089590915302809152022FEF3FEF98172C
:1021400048F4E92FF0E0EC54FE4F208130E09F5F2F
:1021500090935302C90108958091520290915302C5
:10216000891B990B0895CF92DF92EF92FF920F9304
:102170001F93CF93DF937C01CB018A0120915702FB
:10218000222389F0EB016B01C40ED51ECC15DD05B1
:1021900069F06991D701ED91FC910190F081E02DFA
:1021A000C7010995F3CF642F0E942410C801DF9165
:1021B000CF911F910F91FF90EF90DF90CF900895F6
:1021C000CF93DF931F92CDB7DEB76983209157027B
:1021D0002223F9F020915402203258F021E030E01F
:1021E000FC013383228390E080E00F90DF91CF9158
:1021F000089580915502E82FF0E0EC56FE4F99814A
:1022000090838F5F809355028093540281E090E029
:10221000ECCF61E0CE0101960E942410F7CFCF925F
:10222000DF92EF92FF920F931F93CF93DF93D091A2
:10223000540281E0D13208F09CC0C09156020E9445
:1022400077076B017C0180911E0281116CC082E0D6
:1022500080931E0281E0809320028FEF80931D0205
:1022600010924202D0934102A4E9B1E0E1E2F2E02F
:1022700080E0D8138DC01092430280914302CC0FAE
:10228000C82BC093430280911F02813009F084C0A3
:1022900010921F020E9477076B017C01809143021C
:1022A0008093BB008091D5019091D601A091D70178
:1022B000B091D801892B8A2B8B2BA1F00E94770734
:1022C0000091D5011091D6012091D7013091D8010C
:1022D0006C197D098E099F0906171707280739070A
:1022E00008F442C08091BC0083FDD8CF85EC809378
:1022F000BC000E9477076B017C0180911E02823036
:1023000009F44CC080911D028F3F09F469C080918F
:102310001D02803209F466C080911D02803309F4E9
:1023200063C084E026C08091D5019091D601A09130
:10233000D701B091D801892B8A2B8B2B09F483CF3D
:102340000E9477070091D5011091D6012091D70105
:102350003091D8016C197D098E099F09061717075E
:102360002807390708F06FCF8091D4010E946910C7
:1023700085E0109255021092540210925702DF919C
:10238000CF911F910F91FF90EF90DF90CF90089524
:102390009D9191938F5F6DCF85EEA9CF8091D501EF
:1023A0009091D601A091D701B091D801892B8A2BA9
:1023B0008B2B09F4A2CF0E9477070091D5011091D1
:1023C000D6012091D7013091D8016C197D098E0971
:1023D0009F09061717072807390708F08ECFC4CFC3
:1023E00080E0C7CF82E0C5CF83E0C3CFEF92FF92FA
:1023F0000F931F93CF93DF937C01C62F809124030B
:1024000090912503009709F459C02091280331E0E9
:1024100030935702209356021092550210925402A4
:10242000DC01ED91FC910190F081E02D60E00995D7
:102430008701EE24E394F12CD1E0C1508091240374
:1024400090912503CF3F91F1B0E2EB16F104D8F063
:102450000E940F118091240390912503209128035D
:10246000D0935702209356021092550210925402B4
:10247000DC01ED91FC910190F081E02D60E0099587
:10248000EE24E394F12C8091240390912503F8012C
:102490006491DC01ED91FC910190F081E02D0995B2
:1024A000BFEFEB1AFB0A0F5F1F4FC7CFDF91CF9132
:1024B0001F910F91FF90EF900C940F11E091340356
:1024C000F0913503908180913A0380958923808330
:1024D0008701C15008F438C0F8018491209122038B
:1024E00030912303232B29F00E94250A0F5F1F4FF1
:1024F000F0CF28E030E040E8E0913003F091310384
:1025000090913803582F5423D9F05081952B908304
:10251000E0913203F0913303908150913903952B70
:102520009083E0913203F09133035081909139030D
:10253000909595239083469521503109E9F6D6CFA1
:10254000508190959523E3CFDF91CF911F910F910B
:10255000FF90EF9008951F93CF93DF93EC018D8D43
:102560009E8D009721F1162F29A131E0309357025B
:10257000209356021092550210925402DC01ED9104
:10258000FC910190F081E02D60E009958D8D9E8D8C
:10259000DC01ED91FC910190F081E02D612F099516
:1025A0008D8D9E8DDF91CF911F910C940F11ADA554
:1025B000BEA59C918BA9809589238C938B8D9C8D36
:1025C000892B31F0862FDF91CF911F910C94250A32
:1025D00028E030E080E8A9A5BAA599A9462F4823AC
:1025E000C1F04C91942B9C93ABA5BCA59C914AA99E
:1025F000942B9C93ABA5BCA54C919AA99095942340
:102600009C9386952150310931F7DF91CF911F912D
:1026100008954C9190959423E6CFDF92EF92FF922C
:102620000F931F93CF93DF93809124039091250301
:10263000892B09F498C020913C0330913D034091CF
:102640003E0350913F0360E074E284EF90E00E940B
:10265000D3232051310941095109569547953795A2
:1026600027952093B80065E08CE59BE00E94F61169
:1026700060910B03615087E093E00E94AB122091C0
:102680000D0330910E03C901079697FD079633E0BD
:10269000959587953A95E1F720910B0330910C03BE
:1026A000829F8001839F100D929F100D1124C09175
:1026B0002603D091270380912403909125030C0FCA
:1026C0001D1F009709F48FC02091280331E030933B
:1026D0005702209356021092550210925402DC01C8
:1026E000ED91FC910190F081E02D60E40995EE24DC
:1026F000E394F12CDD24D39480912403909125035D
:102700000C171D0709F446C0B0E2EB16F104D8F02F
:102710000E940F118091240390912503209128039A
:10272000D0925702209356021092550210925402F2
:10273000DC01ED91FC910190F081E02D60E40995C0
:10274000EE24E394F12C8091240390912503699168
:10275000DC01ED91FC910190F081E02D0995BFEF36
:10276000EB1AFB0AC9CF8091220390912303892B96
:1027700031F080914503909146030E942C0AE0912C
:102780003603F0913703908180913B038095892334
:10279000808369CF0E940F118091240390912503BB
:1027A000892B09F461C0209140033091410340918D
:1027B00042035091430360E074E284EF90E00E9492
:1027C000D323205131094109510956954795379531
:1027D00027952093B800DF91CF911F910F91FF9023
:1027E000EF90DF900895E0913403F09135038081FC
:1027F00090913A03892B80830C171D0769F2899108
:102800002091220330912303232B19F00E94250AE3
:10281000F3CF28E030E040E8E0913003F09131035D
:1028200090913803582F5423D9F05081952B9083E1
:10283000E0913203F0913303908150913903952B4D
:102840009083E0913203F0913303508190913903EA
:10285000909595239083469521503109E9F6CCCF88
:10286000508190959523E3CFE0913603F0913703A3
:10287000808190913B03892B8083ADCF1F93CF93B1
:10288000DF93EC01162F8D8D9E8D892BB1F12DA933
:102890003EA94FA958AD60E074E284EF90E00E9439
:1028A000D323205131094109510956954795379550
:1028B00027952093B80066EA111167EACE010E94BD
:1028C000AB128D8D9E8D892B41F129AD3AAD4BAD6B
:1028D0005CAD60E074E284EF90E00E94D32320516D
:1028E0003109410951095695479537952795209308
:1028F000B800DF91CF911F9108958B8D9C8D892B0E
:1029000021F08EAD9FAD0E942C0AEFA5F8A9908111
:102910008CA9809589238083CECFEFA5F8A98081EB
:102920009CA9892B8083E5CF90E080E00895FB018E
:1029300001900020E9F73197AF01461B570BDC01EE
:10294000ED91FC910280F381E02D09948F929F928A
:10295000AF92BF920F931F93CF93DF93CDB7DEB7A4
:10296000A1970FB6F894DEBF0FBECDBF19A24230BB
:1029700008F44AE08E010F5D1F4F842E912CB12C7C
:10298000A12CA50194010E94D323E62FB901CA010D
:10299000EA3004F5E05DD801EE938D01232B242B62
:1029A000252B79F790E080E0109729F0BD0188E5AC
:1029B00092E00E949714A1960FB6F894DEBF0FBE66
:1029C000CDBFDF91CF911F910F91BF90AF909F909E
:1029D0008F900895E95CDFCF0F931F93CF93DF9320
:1029E000EC010E9497148C0166E571E0CE010E9413
:1029F0009714800F911FDF91CF911F910F91089530
:102A00000F931F93CF93DF93EC01FB01448155811A
:102A100060817181E881F9810280F381E02D09955F
:102A20008C0166E571E0CE010E949714800F911F22
:102A3000DF91CF911F910F9108952F923F924F9266
:102A40005F926F927F928F929F92AF92BF92CF923E
:102A5000DF92EF92FF920F931F93CF93DF93CDB747
:102A6000DEB767970FB6F894DEBF0FBECDBF9A836F
:102A70008983FC0184819581892B09F41DC12090F3
:102A800020033090210320911E032E83F0901B031E
:102A90008F2D90E09A8B898B96E0F99E500111243E
:102AA00020910F033091100338872F83E0901C038F
:102AB00038E0E39E60011124C10104969C878B8756
:102AC00091012A5F3F4F3E872D8702979C8B8B8B0E
:102AD0002E5F3F4F3D832C83808191819A87898728
:102AE00050E040E070E060E044244A94542CAFEFA2
:102AF000BFEF2FEF3FE73E8B2D8B0FEF1FE7E985F1
:102B0000FA858191FA87E987882309F4C4C02114E2
:102B1000310409F48BC08A3051F4EC81FD81849139
:102B20008E9D600D711D112450E040E0E8CF8D3086
:102B300031F3EB85FC859491ED85FE852491891711
:102B4000F0F22817E0F2EB89FC8925913491891B7A
:102B5000F7E08F9F200D311D1124F90132968491E9
:102B60008B83319694919F8731968491888B31968F
:102B700084912A5F3F4FF901F491FF8B2E8122232C
:102B800001F13B81632E712C680E711C87FD7A94D4
:102B900029893A89629E4001639E900C729E900C36
:102BA0001124840E951E2F813885281539054CF483
:102BB000EC81FD8194919E9D600D711D112450E06A
:102BC00040E02F2D382F3203C0011124840F951FB0
:102BD0002E2D3F893203F00111249F01260F371F4C
:102BE000801791070CF48C01ED89FE892E173F07A1
:102BF00014F43E8B2D8BFB81FF9D800D911D1124C4
:102C00000197A817B9070CF4DC018F858E9D200D64
:102C1000311D112421503109421653060CF42901AB
:102C200098899F9D400D511D112469CF8A3019F458
:102C30006C0D7D1D79CF8D3009F461CF2E8122235B
:102C400061F0C501840F951F2F813885281739073A
:102C500024F46C0D7D1D50E040E09501240F351FDC
:102C6000C9010197A817B9070CF4DC01C601860F4A
:102C7000971F0197481659060CF42C01401751076D
:102C80000CF48A018D899E896817790714F47E8B6C
:102C90006D8BA90134CFA017B1070CF43FC0A01B66
:102CA000B10B11962D893E8942165306D4F1421A72
:102CB000530A3FEF431A530A80E890E08A1B9B0BAC
:102CC00096958795909314038093130380E490E086
:102CD000841995099695879590931603809315030B
:102CE00069817A8187E093E067960FB6F894DEBF3A
:102CF0000FBECDBFDF91CF911F910F91FF90EF904D
:102D0000DF90CF90BF90AF909F908F907F906F900B
:102D10005F904F903F902F900C940015B0E0A0E092
:102D2000C1CF512C412CC8CF20910D0330910E03FF
:102D3000C901079697FD079623E0959587952A95F3
:102D4000E1F720910B0330910C03829FA001839F38
:102D5000500D929F500D112470E060E08091260389
:102D6000909127030C94EB25FC01808191810097C1
:102D700011F00C94972408950E94DD250F931F9362
:102D8000CF93DF93EC0188819981009759F02A81D4
:102D90003B812617370730F081E0DF91CF911F91FB
:102DA0000F9108958B016F5F7F4F0E942025009740
:102DB00059F0998388831B830A832C813D81232BBF
:102DC00059F7FC011082E8CF80E0E7CFEF92FF9245
:102DD0000F931F93CF93DF93EC017B018A01BA011C
:102DE0000E94BE1628813981811114C02115310538
:102DF00019F0C9010E949724198218821D821C8231
:102E00001B821A82CE01DF91CF911F910F91FF900B
:102E1000EF9008951D830C83B701C9010E94F2252C
:102E2000F1CF85ED8093BC008091D5019091D601C2
:102E3000A091D701B091D8010796A11DB11D23E043
:102E4000B695A795979587952A95D1F72091BC00BF
:102E500024FD03C010921E0208954091D5015091A7
:102E6000D6016091D7017091D801452B462B472B95
:102E700069F30097A105B10541F025E32A95F1F723
:102E800000000197A109B109E1CF8091D4010C9410
:102E900069101F920F920FB60F9211242F933F9338
:102EA0004F935F936F937F938F939F93AF93BF9352
:102EB000EF93FF9388E592E00E949C06FF91EF91CB
:102EC000BF91AF919F918F917F916F915F914F9142
:102ED0003F912F910F900FBE0F901F9018951F924A
:102EE0000F920FB60F9211242F938F939F93EF930E
:102EF000FF93E0916802F09169028081E0916E0297
:102F0000F0916F0282FD1BC09081809171028F5FF2
:102F10008F7320917202821741F0E0917102F0E00C
:102F2000E85AFD4F958F80937102FF91EF919F9129
:102F30008F912F910F900FBE0F901F901895808149
:102F4000F4CF1F920F920FB60F9211242F933F933D
:102F50008F939F93AF93BF938091450290914602C8
:102F6000A0914702B09148023091440223E0230F20
:102F70002D3758F50196A11DB11D20934402809371
:102F8000450290934602A0934702B0934802809175
:102F9000490290914A02A0914B02B0914C020196D5
:102FA000A11DB11D8093490290934A02A0934B0248
:102FB000B0934C02BF91AF919F918F913F912F9110
:102FC0000F900FBE0F901F90189526E8230F0296C2
:102FD000A11DB11DD2CF1F920F920FB60F921124D7
:102FE0002F933F934F935F936F937F938F939F9311
:102FF000AF93BF93EF93FF938091B900887F8036A2
:1030000009F44AC0F0F5883209F4A7C018F58031F8
:1030100009F49BC0B8F4882309F4F9C0883009F496
:1030200094C0FF91EF91BF91AF919F918F917F914C
:103030006F915F914F913F912F910F900FBE0F9025
:103040001F901895883109F488C0803251F7809319
:103050001D0214C0803409F49DC040F48033B9F3DC
:103060008833F9F680931D0285ECB0C0803509F4F1
:1030700085C0883509F496C0883499F60E941117E6
:10308000D0CF883909F48CC038F5883729F050F44E
:10309000883611F0803729F683E080931E02109263
:1030A0001C0257C0883809F47BC0803919F0803879
:1030B00009F0B7CF80911C02803208F071C0E09116
:1030C0001C0281E08E0F80931C028091BB00F0E017
:1030D000E450FE4F80833DC0803B39F0E0F4803AFD
:1030E00009F479C0883A09F09CCF84E080931E02ED
:1030F0001092FB011092FA01E0915002F0915102FE
:1031000009958091FA0181110FC081E08093FA0145
:103110001092DA0109C0803C09F4A6CF883C09F47A
:10312000A3CF883B09F07DCFE091FB0181E08E0FBA
:103130008093FB01F0E0E652FE4F80818093BB005C
:103140009091FB018091FA0129C080914302809304
:10315000BB0085EC8093BC0064CF909142028091CB
:103160004102981758F5E091420281E08E0F80935A
:103170004202F0E0EF5DFD4F8081E9CFE091420235
:1031800081E08E0F809342028091BB00F0E0EF5D02
:10319000FD4F808390914202809141029817C8F2BE
:1031A00085E8D8CFE091420281E08E0F8093420201
:1031B0008091BB00F0E0EF5DFD4F808380912002A5
:1031C00081115CCF81E080931F0284EA8093BC0070
:1031D00010921E0226CF85EC8093BC0010921E0236
:1031E00080911C02803230F4E0911C02F0E0E45047
:1031F000FE4F108260911C0270E0E0914E02F0914F
:103200004F028CEF91E0099510921C020ACF1092A8
:103210001D0234CFCF92DF92EF92FF920F931F9354
:10322000E82FF92F05C0015011092109310961F179
:10323000908196239417B9F305C001501109210913
:10324000310911F1908196239413F7CFC12CD12C21
:10325000E12CF12C0AC08FEFC81AD80AE80AF80A44
:103260000C151D052E053F0579F0808186238417F6
:1032700091F36C2D7D2D8E2D9F2D1F910F91FF9021
:10328000EF90DF90CF90089560E070E080E090E0F4
:103290001F910F91FF90EF90DF90CF900895E8E598
:1032A000F2E01382128248EE53E060E070E0448363
:1032B0005583668377838AE091E09183808385ECF0
:1032C00090E09587848784EC90E09787868780ECF0
:1032D00090E0918B808B81EC90E0938B828B82ECE1
:1032E00090E0958B848B86EC90E0978B868B118E8B
:1032F000128E138E148EABEFB2E013961C921E92B8
:10330000129714964D935D936D937C9317978CE170
:1033100091E011969C938E93E7E0F3E01382128282
:1033200020E830E03583248380E490E0978386832F
:103330003187208793878287168A15861486178699
:10334000168681E0858B848B2FEF3FEF338B228BAA
:10335000318B208B878B108E128E118E8EE291E036
:1033600091838083148E138EB68FA58F10A2178E33
:103370008FEF84A385A386A387A380A780E89AE123
:10338000A6E0B0E085AB96ABA7ABB0AF80EA96E81D
:10339000A1E0B0E081AF92AFA3AFB4AF80E586AF5C
:1033A00017AEE5EFF2E011821082138212821582CD
:1033B000148250E040E068E571E0CF010C94E6161D
:1033C000CF93DF93CDB7DEB7A7970FB6F894DEBFE4
:1033D0000FBECDBF789484B5826084BD84B5816012
:1033E00084BD85B5826085BD85B5816085BD8091D0
:1033F0006E00816080936E00109281008091810048
:10340000826080938100809181008160809381003F
:10341000809180008160809380008091B100846001
:103420008093B1008091B00081608093B000809162
:103430007A00846080937A0080917A008260809321
:103440007A0080917A00816080937A0080917A007E
:10345000806880937A001092C100E0916802F09138
:10346000690282E08083E0916402F091650210823B
:10347000E0916602F09167028FEC808310927002F7
:10348000E0916C02F0916D0286E08083E0916A0227
:10349000F0916B02808180618083E0916A02F091FB
:1034A0006B02808188608083E0916A02F0916B02F8
:1034B000808180688083E0916A02F0916B02808154
:1034C0008F7D80838091260390912703892B11F1B2
:1034D0000E94941620910D0330910E0380910B03EE
:1034E00090910C03213231050CF04BC0B9016052B0
:1034F000710977FF02C06F5F7F4F7595679583579E
:10350000910997FD019600E210E023E730E048E9D9
:1035100056E04AC020910D0330910E03C901079671
:1035200097FD0796B3E095958795BA95E1F72091B9
:103530000B0330910C03AC01429FC001439F900DDF
:10354000529F900D11240E94FB2390932703809398
:103550002603892B09F0BCCF08E31BE0F801649136
:10356000662341F088E592E00E94BE060F5F1F4F80
:10357000892BA1F766E571E088E592E00E94971437
:10358000FFCFB9016054710977FF02C06F5F7F4FB1
:10359000759567958255910997FD019600E410E0B5
:1035A00022E530E048E758E0959587950E94160F90
:1035B00082E0809329038091240390912503892B35
:1035C00009F446C28CE380932803109253021092B0
:1035D000520210925502109254020E944B108BE13D
:1035E00096E090935102809350028CE196E0909384
:1035F0004F0280934E0280912F0387FD1DC00E94D1
:10360000FB0561E080912F030E942B0761E070E0D1
:1036100080E090E00E949C0760E080912F030E9470
:103620002B076AE070E080E090E00E949C0761E078
:1036300080912F030E942B078091240390912503F2
:10364000892B09F4BCC220913C0330913D03409189
:103650003E0350913F0360E074E284EF90E00E94EB
:10366000D323205131094109510956954795379582
:1036700027952093B80064E084E996E00E94F61153
:1036800060910D03615087E093E00E94AB1264E00B
:1036900080E996E00E94F6118091290360E1813073
:1036A00009F064E187E093E00E94AB1264E08CE8EB
:1036B00096E00E94F6118FE88093440380910B03FB
:1036C00090910C038038910509F092C280910D030E
:1036D00090910E038034910509F09AC280912903DC
:1036E000813009F083C28FE98093440312E16AEDCF
:1036F00087E093E00E94AB12612F87E093E00E9485
:10370000AB1261E887E093E00E94AB126091440342
:1037100087E093E00E94AB1269ED87E093E00E949E
:10372000AB128091290362E2813009F061EF87E0FA
:1037300093E00E94AB1266E086E896E00E94F611E4
:103740008091240390912503892B09F465C220916F
:10375000400330914103409142035091430360E0A4
:1037600074E284EF90E00E94D32320513109410993
:10377000510956954795379527952093B80060EDE8
:1037800077E080E090E00E949C070E94941682E01F
:1037900080931B0380931C0381E090E090931A03B5
:1037A00080931903909318038093170310921403C6
:1037B000109213038AE090E0909316038093150310
:1037C0006AE070E085EF92E00E94BE1693E2292E37
:1037D000312C61E089E00E942B07C1010197F1F7CC
:1037E00060E089E00E942B07E1E9FBE06491EDE7EE
:1037F000FBE08491E82FF0E0EE0FFF1FEE5AF44F4C
:103800008591949100E412E42FE030E0462F0E946D
:103810000A19611571058105910529F06F5F7F4FC8
:103820008F4F9F4F9F700E94672126E933E44BE83A
:103830005CE30E94C6216B017C0169E571E088E5CB
:1038400092E00E949714A7019601C701B6010E9459
:10385000CE2364E671E081111BC026013701E89494
:1038600077F82FEF3FEF4FE75FE7C301B2010E9408
:10387000CE238111DBC12FEF3FEF4FE75FE7C3019D
:10388000B2010E94602118160CF0D0C168E671E008
:1038900088E592E00E94971460E771E088E592E085
:1038A0000E94EC1420E030E845EF53E4C701B60174
:1038B0000E94282320E030E048EC52E40E94C62118
:1038C0002B013C011BA21AA21DA21CA21FA21EA218
:1038D0008E010F5F1F4F21E043E00E940B1F0097F6
:1038E00009F41BC2FC0101900020E9F73197AF01F8
:1038F000481B590BBC01CE0182960E94E6168091AE
:10390000F5029091F602009709F416C26AA17BA114
:103910006115710509F40EC24091F7025091F80249
:103920002EA13FA14217530708F404C20E94F225BA
:103930008EA19FA19093FA028093F9021FA21EA26A
:10394000CE0182960E94B416E090F902F090FA023D
:10395000F2E0EF0EF11CB70185EF92E00E94BE1677
:10396000882391F02091F5023091F6028091F902BE
:103970009091FA0264E771E0820F931F0E94F22592
:10398000F092FA02E092F90265EF72E088E592E0C7
:103990000E94001520E030E048EC51E4C301B20180
:1039A0000E94602187FFDFC10E94941610921403C9
:1039B00010921303109216031092150367E771E03B
:1039C00087E093E00E94EC141A8219821C821B8209
:1039D0001E821D826091F5027091F60261157105DB
:1039E00041F04091F9025091FA02CE0101960E94F5
:1039F000E616CE0101960E941D15CE0101960E9489
:103A0000B41610921403109213034CE250E050933A
:103A100016034093150360E871E087E093E00E948D
:103A2000EC140E940D1361E087E00E942B0761E017
:103A30008DE00E942B07E0E0F0E0EF2B09F4C9CE07
:103A40000E948806882309F4C4CE0E940000C1CEDB
:103A500080912D030E94FB0580912E030E94FB059F
:103A600080912D03082E000C990BFC01EB58F44FAC
:103A7000E491F0E0EE0FFF1FEF59F44F25913491E0
:103A80003093350320933403FC01E757F44FE4915E
:103A9000E0933A0380912E03082E000C990BFC0151
:103AA000EB58F44FE491F0E0EE0FFF1FEF59F44FA5
:103AB000A591B491B0933703A0933603FC01E75767
:103AC000F44FE491E0933B038C91E82BEC938091CD
:103AD000220390912303892B89F11FB7F8948091D9
:103AE0004D02811124C0EFE7FBE08491E3E9FBE0A4
:103AF0009491E82FF0E0EE0FFF1FE559F44FA591E8
:103B0000B491EC91E92321F461E08AE00E942B0753
:103B10008AE00E94FB058CB580618CBD8CB5806409
:103B20008CBD8DE00E94FB058BE00E94FB0580911F
:103B30004D028F5F80934D021FBF5DCD80912B039F
:103B40000E94FB0580912C030E94FB0580912B03B2
:103B5000082E000C990BFC01EB58F44FE491F0E0B7
:103B6000EE0FFF1FEF59F44F25913491309331033D
:103B700020933003FC01E757F44FE491E0933803BE
:103B800080912C03082E000C990BFC01EB58F44F8C
:103B9000E491F0E0EE0FFF1FEF59F44FA591B491BF
:103BA000B0933303A0933203FC01E757F44FE49141
:103BB000E09339038C91E095E823EC931CCD809140
:103BC000220390912303892B31F08091450390913A
:103BD00046030E942C0AE0913603F091370390814E
:103BE00080913B0380958923808345CD8FEC7CCDEC
:103BF0008036910569F480910D0390910E034097F2
:103C000039F480912903813029F480E180934403C1
:103C100012E06DCD8FEAFACFE0913603F0913703D1
:103C2000808190913B03892B8083A9CD2FEF3FEFBB
:103C30004FE75FE4C701B6010E94C92318161CF4C0
:103C40006CE671E025CE2FEF3FEF4FE75FECC70149
:103C5000B6010E94602187FDF3CF20E030E0A9018A
:103C6000C701B6010E94602187FF54C06DE288E55C
:103C700092E00E94BE06C701B60190582AE037EDD7
:103C800043EA5BE30E94BC224B015C010E949A2341
:103C90002B013C010E9465219B01AC01C501B401CF
:103CA0000E94BB224B015C014AE0C301B2010E94A9
:103CB000A6146EE288E592E00E94BE0620E030E0A5
:103CC00040E251E4C501B4010E94C6214B015C01F0
:103CD0000E949A232B01712C612C4AE0C301B2018E
:103CE0000E94A614C301B2010E9465219B01AC0190
:103CF000C501B4010E94BB2220E030E040E251E463
:103D00000E94C6210E949A2390E080E04AE00E942F
:103D1000A614C2CDC701B601B1CF8AA19BA100975D
:103D200011F00E9497241BA21AA21FA21EA21DA27C
:103D30001CA2E5CD0E9497248AA19BA19093F60234
:103D40008093F5028CA19DA19093F8028093F702D5
:103D50008EA19FA19093FA028093F9021BA21AA24E
:103D60001DA21CA2EBCD0E94941610921403109277
:103D70001303109216031092150367E771E087E0B2
:103D800093E00E94EC141A8219821C821B821E820C
:103D90001D826091F5027091F6026115710541F086
:103DA0004091F9025091FA02CE0101960E94E61666
:103DB000CE0101960E941D15CE0101960E94B416F7
:103DC00010921403109213038CE290E09093160368
:103DD0008093150369E871E087E093E00E94EC149A
:103DE0000E940D1360E087E00E942B0760E020CE68
:103DF00085EF92E00E94B4168EE291E09093080362
:103E0000809307038091260390912703009711F078
:103E10000C9497240895EF920F931F93CF93DF9301
:103E2000E80134E047FD34E1042E000C550B57FF48
:103E300003C0519541955109E32E022F242FAE0165
:103E40000E94291FCE01DF91CF911F910F91EF901A
:103E50000895A9E0B0E0EFE2FFE10C948A226A0144
:103E6000F22EB02E102FFBE3AF2EA01608F41BE3AA
:103E70001F5F012F27E0AE014F5F5F4F0E94882038
:103E8000BC018981982F9970913009F43FC09BE261
:103E9000E1FC04C09E2D9170E0FC3AC05E2D507193
:103EA000E82FE87083FF46C084E0911101C083E0F1
:103EB000EF2DE81B8F1508F0E0E0D6018E2F20E2F1
:103EC000552351F1992329F0D6019C93C6010196FF
:103ED0006C0196012D5F3F4FE2FE24C08EE4D601B7
:103EE0008C9391E411969C93119712968C93D9011F
:103EF0008E2F90E281111BC0E20FF32FF11D108273
:103F00008EEF9FEF2996ECE00C94A6229DE2C6CF9F
:103F100090E2C4CF2D9381508111FCCFCE0ED11CE5
:103F2000E0E0D0CF8EE6D6018C9391E6DBCF9D9377
:103F30008150E0CF482F447082FF3DC084E0911152
:103F400001C083E08F1510F4EF2DE81BD6018E2FF2
:103F500020E2552309F1992329F0D6019C93C6014B
:103F600001966C0196012D5F3F4FE2FE1BC089E474
:103F7000D6018C938EE411968C93119786E4129659
:103F80008C93D9018E2F90E2882309F4B5CF9D93AD
:103F90008150FACF2D9381508111FCCFCE0ED11CD0
:103FA000E0E0D9CF89E6D6018C938EE611968C930A
:103FB000119786E6E4CF9B0177FF02C030E020E056
:103FC000A1E0B0E0911102C0B0E0A0E0F9013196AB
:103FD000AE0FBF1F8B2C912CBB2009F461C0540184
:103FE000EFEFAE1ABE0AAA0DBB1DFA161B0619F09A
:103FF00014F04F2D4A1B511188C0E3FC59C07601C3
:10400000A42FB0E2A1114FC0C40ED11C992309F412
:104010005BC040E0D6011196F60190836D015523F7
:1040200009F448C0012F060F9A81582F507184FF60
:1040300003C0913309F4015010160CF047C0093049
:1040400008F008E0EEE2FE2E5B01A01AB10885013F
:104050009194819491082F3F320729F4D601FC9264
:10406000F60131966F016217730794F10217130777
:104070007CF5DB01A21BB30BAA24A394B12CAC0EDC
:10408000BD1EAA0DBB1D11968C9121503109D60180
:10409000119628153905F4F0F60180836D01DBCF08
:1040A000B12CA12CA0CFF701B1937F01A150AACFD1
:1040B0009111B0CFD601942F50E302C05D9391507F
:1040C0009111FCCFC40ED11C40E0ACCF01E0BACFBF
:1040D00080E3DBCF6217730731F4963388F49533AE
:1040E00011F4552369F0F6018083FD01842F90E2DD
:1040F000811108C0A40FB11D1C9290E080E002CF96
:1041000081E3F1CF91938150F3CF911183CF8ACF87
:10411000283008F027E03327DA01990F311D87FD99
:10412000916000966105710539F432602E5F3D9310
:1041300030E32A95E1F708959F3F30F0803871050C
:10414000610509F03C5F3C5F3D93913008F0806869
:10415000911DDF93CF931F930F93FF92EF92192F2F
:10416000987F9695E92F96959695E90FFF27EE5340
:10417000FF4F99273327EE24FF24A701E70105907D
:104180000894079428F4360FE71EF81E491F511DA6
:10419000660F771F881F991F0694A1F70590079453
:1041A00028F4E70EF81E491F561FC11D770F881F00
:1041B000991F661F0694A1F70590079428F4F80E3E
:1041C000491F561FC71FD11D880F991F661F771FD4
:1041D0000694A1F70590079420F4490F561FC71FB6
:1041E000D81F990F661F771F881F0694A9F784911F
:1041F0001095177041F0D695C79557954795F79448
:10420000E7941A95C1F7E8E6F0E0689415901591E7
:1042100035916591959105907FE27395E118F10ACA
:10422000430B560BC90BD009C0F7E10CF11E431F1D
:10423000561FC91FD01D7EF4703311F48A95E6CF46
:10424000E894015030F0080F0AF40027021708F430
:10425000202F2395022F7A3328F079E37D932A9536
:10426000E9F710C07D932A9589F60694979567958E
:10427000379517951794E118F10A430B560BC90BA4
:10428000D00998F023957E9173957A3308F070E306
:104290007C932013B8F77E9170617D9330F0839505
:1042A00071E37D9370E32A95E1F71124EF90FF907D
:1042B0000F911F91CF91DF91992787FD90950895D8
:1042C0000E94A22108F481E00895E89409C097FBB8
:1042D0003EF490958095709561957F4F8F4F9F4FDD
:1042E0009923A9F0F92F96E9BB279395F695879521
:1042F00077956795B795F111F8CFFAF4BB0F11F4E4
:1043000060FF1BC06F5F7F4F8F4F9F4F16C088238A
:1043100011F096E911C0772321F09EE8872F762FC0
:1043200005C0662371F096E8862F70E060E02AF001
:104330009A95660F771F881FDAF7880F96958795ED
:1043400097F90895990F0008550FAA0BE0E8FEEFC2
:1043500016161706E807F907C0F012161306E40749
:10436000F50798F0621B730B840B950B39F40A2642
:1043700061F0232B242B252B21F408950A2609F420
:10438000A140A6958FEF811D811D08950E94D9211E
:104390000C944A220E943C2238F00E94432220F0D2
:1043A000952311F00C9433220C94392211240C948F
:1043B0007E220E945B2270F3959FC1F3950F50E01F
:1043C000551F629FF001729FBB27F00DB11D639FC7
:1043D000AA27F00DB11DAA1F649F6627B00DA11D6D
:1043E000661F829F2227B00DA11D621F739FB00D13
:1043F000A11D621F839FA00D611D221F749F332783
:10440000A00D611D231F849F600D211D822F762F1B
:104410006A2F11249F5750409AF0F1F088234AF0F8
:10442000EE0FFF1FBB1F661F771F881F9150504064
:10443000A9F79E3F510580F00C9433220C947E2204
:104440005F3FE4F3983ED4F3869577956795B795EB
:10445000F795E7959F5FC1F7FE2B880F911D969505
:10446000879597F9089597F99F6780E870E060E075
:1044700008959FEF80EC089500240A9416161706FD
:1044800018060906089500240A9412161306140645
:1044900005060895092E0394000C11F4882352F0A8
:1044A000BB0F40F4BF2B11F460FF04C06F5F7F4F60
:1044B0008F4F9F4F089557FD9058440F551F59F047
:1044C0005F3F71F04795880F97FB991F61F09F3F01
:1044D00079F087950895121613061406551FF2CF2A
:1044E0004695F1DF08C0161617061806991FF1CF7A
:1044F00086957105610508940895E894BB276627A1
:104500007727CB0197F908952F923F924F925F92B0
:104510006F927F928F929F92AF92BF92CF92DF92D3
:10452000EF92FF920F931F93CF93DF93CDB7DEB738
:10453000CA1BDB0B0FB6F894DEBF0FBECDBF0994CC
:104540002A88398848885F846E847D848C849B8423
:10455000AA84B984C884DF80EE80FD800C811B8131
:10456000AA81B981CE0FD11D0FB6F894DEBF0FBE60
:10457000CDBFED0108955058BB27AA270E94D32232
:104580000C944A220E943C2238F00E94432220F0E0
:1045900039F49F3F19F426F40C9439220EF4E09577
:1045A000E7FB0C943322E92F0E945B2258F3BA17E1
:1045B000620773078407950720F079F4A6F50C9439
:1045C0007D220EF4E0950B2EBA2FA02D0B01B90120
:1045D00090010C01CA01A0011124FF27591B99F079
:1045E000593F50F4503E68F11A16F040A22F232F85
:1045F000342F4427585FF3CF469537952795A795D5
:10460000F0405395C9F77EF41F16BA0B620B730B7B
:10461000840BBAF09150A1F0FF0FBB1F661F771FEC
:10462000881FC2F70EC0BA0F621F731F841F48F4A1
:10463000879577956795B795F7959E3F08F0B0CF2A
:104640009395880F08F09927EE0F97958795089511
:104650000E943C230C944A220E94432258F00E945C
:104660003C2240F029F45F3F29F00C943322511191
:104670000C947E220C9439220E945B2268F39923C9
:10468000B1F3552391F3951B550BBB27AA2762174E
:104690007307840738F09F5F5F4F220F331F441F5B
:1046A000AA1FA9F335D00E2E3AF0E0E832D091508F
:1046B0005040E695001CCAF72BD0FE2F29D0660F7C
:1046C000771F881FBB1F261737074807AB07B0E8BF
:1046D00009F0BB0B802DBF01FF2793585F4F3AF0C5
:1046E0009E3F510578F00C9433220C947E225F3F5C
:1046F000E4F3983ED4F3869577956795B795F7954B
:104700009F5FC9F7880F911D9695879597F9089532
:10471000E1E0660F771F881FBB1F621773078407CE
:10472000BA0720F0621B730B840BBA0BEE1F88F7DD
:10473000E09508950E94632288F09F5798F0B92F62
:104740009927B751B0F0E1F0660F771F881F991FC6
:104750001AF0BA95C9F714C0B13091F00E947D22C9
:10476000B1E008950C947D22672F782F8827B85FD9
:1047700039F0B93FCCF3869577956795B395D9F71E
:104780003EF490958095709561957F4F8F4F9F4F28
:1047900008950E94A22108F48FEF08950E94A2219B
:1047A000880B990B0895A1E21A2EAA1BBB1BFD01D1
:1047B0000DC0AA1FBB1FEE1FFF1FA217B307E40700
:1047C000F50720F0A21BB30BE40BF50B661F771F58
:1047D000881F991F1A9469F7609570958095909538
:1047E0009B01AC01BD01CF010895EE0FFF1F0590A5
:1047F000F491E02D09940F931F93CF93DF938230B0
:10480000910510F482E090E0E0914903F0914A03B1
:1048100030E020E0B0E0A0E0309799F421153105B8
:1048200009F44AC0281B390B24303105D8F58A8198
:104830009B816115710589F1FB0193838283FE01E0
:1048400011C0408151810281138148175907E0F05E
:104850004817590799F4109761F012960C93129724
:1048600013961C933296CF01DF91CF911F910F9138
:1048700008950093490310934A03F4CF211531059D
:1048800051F04217530738F0A901DB019A01BD012D
:10489000DF01F801C1CFEF01F9CF90934A03809374
:1048A0004903CDCFFE01E20FF31F81939193225074
:1048B000310939832883D7CF2091470330914803AA
:1048C000232B41F4209102013091030130934803DE
:1048D00020934703209100013091010121153105FA
:1048E00041F42DB73EB74091040150910501241BBE
:1048F000350BE0914703F0914803E217F307A0F46A
:104900002E1B3F0B2817390778F0AC014E5F5F4F25
:104910002417350748F04E0F5F1F5093480340930C
:104920004703819391939FCFF0E0E0E09CCFCF933A
:10493000DF930097E9F0FC01329713821282A09175
:104940004903B0914A03ED0130E020E01097A1F453
:1049500020813181820F931F2091470330914803BA
:104960002817390709F061C0F0934803E093470323
:10497000DF91CF910895EA01CE17DF07E8F54A816C
:104980005B819E0141155105B1F7E901FB83EA8383
:1049900049915991C40FD51FEC17FD0761F480812F
:1049A00091810296840F951FE90199838883828102
:1049B00093819B838A83F0E0E0E012968D919C9135
:1049C00013970097B9F52D913C911197CD0102965F
:1049D000820F931F2091470330914803281739070E
:1049E00039F6309751F510924A0310924903B0936B
:1049F0004803A0934703BCCFD383C2834081518136
:104A0000840F951FC817D90761F44E5F5F4F8881E7
:104A10009981480F591F518340838A819B819383D9
:104A200082832115310509F0B0CFF0934A03E0935A
:104A300049039ECFFD01DC01C0CF13821282D7CF84
:104A4000B0E0A0E0E6E2F5E20C9486228C0100974B
:104A500051F4CB010E94FB238C01C801CDB7DEB716
:104A6000E0E10C94A222FC01E60FF71F9C0122500A
:104A70003109E217F30708F49DC0D901CD91DC910B
:104A80001197C617D70798F0C530D10530F3CE017E
:104A900004978617970708F3C61BD70B2297C19375
:104AA000D1936D937C93CF010E949724D6CF5B0165
:104AB000AC1ABD0A4C018C0E9D1EA0914903B09109
:104AC0004A03512C412CF12CE12C109731F58091A7
:104AD0004703909148038815990509F05CC0461674
:104AE000570608F058C0809100019091010100978D
:104AF00041F48DB79EB74091040150910501841B8C
:104B0000950BE817F90708F055C0F0934803E093B8
:104B10004703F90171836083A0CF8D919C91119718
:104B200012966C90129713967C901397A815B9055E
:104B300059F56C0142E0C40ED11CCA14DB0420F10B
:104B4000AC014A195B09DA011296159780F062826E
:104B5000738251834083D9016D937C93E114F104F6
:104B600071F0D7011396FC93EE93129776CF2296AD
:104B70008C0F9D1FF90191838083F301EFCFF09398
:104B80004A03E093490369CF4816590608F42C01FB
:104B90007D01D3019ACFCB010E94FB237C010097BA
:104BA00049F0AE01B8010E94E225C8010E94972495
:104BB000870153CF10E000E050CF81E090E0F894FF
:104BC0000C94F925FB01DC0102C001900D924150CB
:104BD0005040D8F70895DC0101C06D93415050401A
:104BE000E0F70895FB01DC0101900D920020E1F750
:104BF000089515E0C0EDD5E004C0FE010E94F52344
:0C4C00002196C13DD107C9F7F894FFCF01
:104C0C0000004B03800000000000BE061E064B0691
:104C1C000B077C065A066E0600000000E010B3106D
:104C2C0094141A06AC1099108A10000000006A0C3B
:104C3C001E0694141D0675091A060F0FE70E030FB6
:104C4C00F70E770F1A06300A3E14E5082E09300EBF
:104C5C00130E9B0D3C0D0D0A0064697374616E6339
:104C6C00653A20006E616E00696E66006F766600B4
:104C7C0020636D002025005761746572204174001B
:104C8C004D6F746F72204F4E004D6F746F72204FCA
:044C9C004646000088
:00000001FF
